{
  "contractName": "CertificateStorage",
  "abi": [
    {
      "anonymous": false,
      "inputs": [
        {
          "indexed": true,
          "internalType": "bytes32",
          "name": "hash",
          "type": "bytes32"
        }
      ],
      "name": "CertificateHashStored",
      "type": "event"
    },
    {
      "inputs": [
        {
          "internalType": "bytes32",
          "name": "hash",
          "type": "bytes32"
        }
      ],
      "name": "storeCertificateHash",
      "outputs": [],
      "stateMutability": "nonpayable",
      "type": "function"
    },
    {
      "inputs": [
        {
          "internalType": "bytes32",
          "name": "hash",
          "type": "bytes32"
        }
      ],
      "name": "verifyCertificateHash",
      "outputs": [
        {
          "internalType": "bool",
          "name": "",
          "type": "bool"
        }
      ],
      "stateMutability": "view",
      "type": "function"
    }
  ],
  "bytecode": "0x608060405234801561001057600080fd5b506102a7806100206000396000f3fe608060405234801561001057600080fd5b50600436106100365760003560e01c806356d2f3c41461003b5780639744250e14610057575b600080fd5b61005560048036038101906100509190610180565b610087565b005b610071600480360381019061006c9190610180565b610142565b60405161007e91906101f8565b60405180910390f35b60008082815260200190815260200160002060009054906101000a900460ff16156100e7576040517f08c379a00000000000000000000000000000000000000000000000000000000081526004016100de90610213565b60405180910390fd5b600160008083815260200190815260200160002060006101000a81548160ff021916908315150217905550807f97f394c14a7d77b9741393562342b9773e42615410d34c40a152933418b58d0360405160405180910390a250565b600080600083815260200190815260200160002060009054906101000a900460ff169050919050565b60008135905061017a8161025a565b92915050565b60006020828403121561019257600080fd5b60006101a08482850161016b565b91505092915050565b6101b281610244565b82525050565b60006101c5601f83610233565b91507f4365727469666963617465206861736820616c726561647920657869737473006000830152602082019050919050565b600060208201905061020d60008301846101a9565b92915050565b6000602082019050818103600083015261022c816101b8565b9050919050565b600082825260208201905092915050565b60008115159050919050565b6000819050919050565b61026381610250565b811461026e57600080fd5b5056fea264697066735822122086e32e2b7b501c107bc874ebe2375ae84ee8f2a35780846fe9c28a249c6a9eb664736f6c63430008000033",
  "immutableReferences": {},
  "source": "// SPDX-License-Identifier: MIT\r\npragma solidity ^0.8.0;\r\n\r\ncontract CertificateStorage {\r\n    mapping(bytes32 => bool) private certificateHashes;\r\n\r\n    event CertificateHashStored(bytes32 indexed hash);\r\n\r\n    function storeCertificateHash(bytes32 hash) public {\r\n        require(!certificateHashes[hash], \"Certificate hash already exists\");\r\n        certificateHashes[hash] = true;\r\n        emit CertificateHashStored(hash);\r\n    }\r\n\r\n    function verifyCertificateHash(bytes32 hash) public view returns (bool) {\r\n        return certificateHashes[hash];\r\n    }\r\n}\r\n",
  "sourcePath": "C:\\Users\\ANISH KOUNDINYA K.A\\Desktop\\CertificateUI\\api\\contracts\\CertificateStorage.sol",
  "compiler": {
    "name": "solc",
    "version": "0.8.0+commit.c7dfd78e.Emscripten.clang"
  },
  "schemaVersion": "3.4.16",
  "updatedAt": "2024-06-18T19:02:49.516Z",
  "devdoc": {
    "kind": "dev",
    "methods": {},
    "version": 1
  },
  "userdoc": {
    "kind": "user",
    "methods": {},
    "version": 1
  }
}